{
    "_format": "hh-sol-artifact-1",
    "contractName": "TokenizedBallot",
    "sourceName": "contracts/TokenizedBallot.sol",
    "abi": [
        {
            "inputs": [
                {
                    "internalType": "bytes32[]",
                    "name": "proposalNames",
                    "type": "bytes32[]"
                },
                {
                    "internalType": "address",
                    "name": "_tokenContract",
                    "type": "address"
                },
                {
                    "internalType": "uint256",
                    "name": "_referenceBlock",
                    "type": "uint256"
                }
            ],
            "stateMutability": "nonpayable",
            "type": "constructor"
        },
        {
            "inputs": [
                {
                    "internalType": "uint256",
                    "name": "",
                    "type": "uint256"
                }
            ],
            "name": "proposals",
            "outputs": [
                {
                    "internalType": "bytes32",
                    "name": "name",
                    "type": "bytes32"
                },
                {
                    "internalType": "uint256",
                    "name": "voteCount",
                    "type": "uint256"
                }
            ],
            "stateMutability": "view",
            "type": "function"
        },
        {
            "inputs": [],
            "name": "referenceBlock",
            "outputs": [
                {
                    "internalType": "uint256",
                    "name": "",
                    "type": "uint256"
                }
            ],
            "stateMutability": "view",
            "type": "function"
        },
        {
            "inputs": [],
            "name": "tokenContract",
            "outputs": [
                {
                    "internalType": "contract ITokenizedVotes",
                    "name": "",
                    "type": "address"
                }
            ],
            "stateMutability": "view",
            "type": "function"
        },
        {
            "inputs": [
                {
                    "internalType": "uint256",
                    "name": "proposal",
                    "type": "uint256"
                },
                {
                    "internalType": "uint256",
                    "name": "amount",
                    "type": "uint256"
                }
            ],
            "name": "vote",
            "outputs": [],
            "stateMutability": "nonpayable",
            "type": "function"
        },
        {
            "inputs": [
                {
                    "internalType": "address",
                    "name": "account",
                    "type": "address"
                }
            ],
            "name": "votePower",
            "outputs": [
                {
                    "internalType": "uint256",
                    "name": "votePower_",
                    "type": "uint256"
                }
            ],
            "stateMutability": "view",
            "type": "function"
        },
        {
            "inputs": [
                {
                    "internalType": "address",
                    "name": "",
                    "type": "address"
                }
            ],
            "name": "votePowerSpent",
            "outputs": [
                {
                    "internalType": "uint256",
                    "name": "",
                    "type": "uint256"
                }
            ],
            "stateMutability": "view",
            "type": "function"
        },
        {
            "inputs": [],
            "name": "winnerName",
            "outputs": [
                {
                    "internalType": "bytes32",
                    "name": "winnerName_",
                    "type": "bytes32"
                }
            ],
            "stateMutability": "view",
            "type": "function"
        },
        {
            "inputs": [],
            "name": "winningProposal",
            "outputs": [
                {
                    "internalType": "uint256",
                    "name": "winningProposal_",
                    "type": "uint256"
                }
            ],
            "stateMutability": "view",
            "type": "function"
        }
    ],
    "bytecode": "0x60806040523480156200001157600080fd5b5060405162000eca38038062000eca833981810160405281019062000037919062000384565b60005b8351811015620000ce5760026040518060400160405280868481518110620000675762000066620003ff565b5b6020026020010151815260200160008152509080600181540180825580915050600190039060005260206000209060020201600090919091909150600082015181600001556020820151816001015550508080620000c5906200045d565b9150506200003a565b508060008190555081600160006101000a81548173ffffffffffffffffffffffffffffffffffffffff021916908373ffffffffffffffffffffffffffffffffffffffff160217905550505050620004aa565b6000604051905090565b600080fd5b600080fd5b600080fd5b6000601f19601f8301169050919050565b7f4e487b7100000000000000000000000000000000000000000000000000000000600052604160045260246000fd5b620001848262000139565b810181811067ffffffffffffffff82111715620001a657620001a56200014a565b5b80604052505050565b6000620001bb62000120565b9050620001c9828262000179565b919050565b600067ffffffffffffffff821115620001ec57620001eb6200014a565b5b602082029050602081019050919050565b600080fd5b6000819050919050565b620002178162000202565b81146200022357600080fd5b50565b60008151905062000237816200020c565b92915050565b6000620002546200024e84620001ce565b620001af565b905080838252602082019050602084028301858111156200027a5762000279620001fd565b5b835b81811015620002a7578062000292888262000226565b8452602084019350506020810190506200027c565b5050509392505050565b600082601f830112620002c957620002c862000134565b5b8151620002db8482602086016200023d565b91505092915050565b600073ffffffffffffffffffffffffffffffffffffffff82169050919050565b60006200031182620002e4565b9050919050565b620003238162000304565b81146200032f57600080fd5b50565b600081519050620003438162000318565b92915050565b6000819050919050565b6200035e8162000349565b81146200036a57600080fd5b50565b6000815190506200037e8162000353565b92915050565b600080600060608486031215620003a0576200039f6200012a565b5b600084015167ffffffffffffffff811115620003c157620003c06200012f565b5b620003cf86828701620002b1565b9350506020620003e28682870162000332565b9250506040620003f5868287016200036d565b9150509250925092565b7f4e487b7100000000000000000000000000000000000000000000000000000000600052603260045260246000fd5b7f4e487b7100000000000000000000000000000000000000000000000000000000600052601160045260246000fd5b60006200046a8262000349565b91507fffffffffffffffffffffffffffffffffffffffffffffffffffffffffffffffff82036200049f576200049e6200042e565b5b600182019050919050565b610a1080620004ba6000396000f3fe608060405234801561001057600080fd5b50600436106100885760003560e01c8063b384abef1161005b578063b384abef1461012a578063d94c8caa14610146578063e2ba53f014610164578063e490e6991461018257610088565b8063013cf08b1461008d57806355a373d6146100be578063609ff1bd146100dc5780639e90d0d9146100fa575b600080fd5b6100a760048036038101906100a2919061057e565b6101b2565b6040516100b59291906105d3565b60405180910390f35b6100c66101e6565b6040516100d3919061067b565b60405180910390f35b6100e461020c565b6040516100f19190610696565b60405180910390f35b610114600480360381019061010f91906106ef565b610294565b6040516101219190610696565b60405180910390f35b610144600480360381019061013f919061071c565b6102ac565b005b61014e610420565b60405161015b9190610696565b60405180910390f35b61016c610426565b604051610179919061075c565b60405180910390f35b61019c600480360381019061019791906106ef565b61045a565b6040516101a99190610696565b60405180910390f35b600281815481106101c257600080fd5b90600052602060002090600202016000915090508060000154908060010154905082565b600160009054906101000a900473ffffffffffffffffffffffffffffffffffffffff1681565b6000806000905060005b60028054905081101561028f57816002828154811061023857610237610777565b5b906000526020600020906002020160010154111561027c576002818154811061026457610263610777565b5b90600052602060002090600202016001015491508092505b8080610287906107d5565b915050610216565b505090565b60036020528060005260406000206000915090505481565b60006102b73361045a565b9050818110156102fc576040517f08c379a00000000000000000000000000000000000000000000000000000000081526004016102f39061087a565b60405180910390fd5b8082600360003373ffffffffffffffffffffffffffffffffffffffff1673ffffffffffffffffffffffffffffffffffffffff16815260200190815260200160002054610348919061089a565b1115610389576040517f08c379a000000000000000000000000000000000000000000000000000000000815260040161038090610940565b60405180910390fd5b81600360003373ffffffffffffffffffffffffffffffffffffffff1673ffffffffffffffffffffffffffffffffffffffff16815260200190815260200160002060008282546103d8919061089a565b9250508190555081600284815481106103f4576103f3610777565b5b90600052602060002090600202016001016000828254610414919061089a565b92505081905550505050565b60005481565b6000600261043261020c565b8154811061044357610442610777565b5b906000526020600020906002020160000154905090565b6000600160009054906101000a900473ffffffffffffffffffffffffffffffffffffffff1673ffffffffffffffffffffffffffffffffffffffff16633a46b1a8836000546040518363ffffffff1660e01b81526004016104bb92919061096f565b602060405180830381865afa1580156104d8573d6000803e3d6000fd5b505050506040513d601f19601f820116820180604052508101906104fc91906109ad565b9050600360008373ffffffffffffffffffffffffffffffffffffffff1673ffffffffffffffffffffffffffffffffffffffff16815260200190815260200160002050919050565b600080fd5b6000819050919050565b61055b81610548565b811461056657600080fd5b50565b60008135905061057881610552565b92915050565b60006020828403121561059457610593610543565b5b60006105a284828501610569565b91505092915050565b6000819050919050565b6105be816105ab565b82525050565b6105cd81610548565b82525050565b60006040820190506105e860008301856105b5565b6105f560208301846105c4565b9392505050565b600073ffffffffffffffffffffffffffffffffffffffff82169050919050565b6000819050919050565b600061064161063c610637846105fc565b61061c565b6105fc565b9050919050565b600061065382610626565b9050919050565b600061066582610648565b9050919050565b6106758161065a565b82525050565b6000602082019050610690600083018461066c565b92915050565b60006020820190506106ab60008301846105c4565b92915050565b60006106bc826105fc565b9050919050565b6106cc816106b1565b81146106d757600080fd5b50565b6000813590506106e9816106c3565b92915050565b60006020828403121561070557610704610543565b5b6000610713848285016106da565b91505092915050565b6000806040838503121561073357610732610543565b5b600061074185828601610569565b925050602061075285828601610569565b9150509250929050565b600060208201905061077160008301846105b5565b92915050565b7f4e487b7100000000000000000000000000000000000000000000000000000000600052603260045260246000fd5b7f4e487b7100000000000000000000000000000000000000000000000000000000600052601160045260246000fd5b60006107e082610548565b91507fffffffffffffffffffffffffffffffffffffffffffffffffffffffffffffffff8203610812576108116107a6565b5b600182019050919050565b600082825260208201905092915050565b7f4e6f7420656e6f75676820766f746520706f7765720000000000000000000000600082015250565b600061086460158361081d565b915061086f8261082e565b602082019050919050565b6000602082019050818103600083015261089381610857565b9050919050565b60006108a582610548565b91506108b083610548565b92508282019050808211156108c8576108c76107a6565b5b92915050565b7f566f7465506f7765725370656e74202b20616d6f756e74203e20766f7465506f60008201527f7765720000000000000000000000000000000000000000000000000000000000602082015250565b600061092a60238361081d565b9150610935826108ce565b604082019050919050565b600060208201905081810360008301526109598161091d565b9050919050565b610969816106b1565b82525050565b60006040820190506109846000830185610960565b61099160208301846105c4565b9392505050565b6000815190506109a781610552565b92915050565b6000602082840312156109c3576109c2610543565b5b60006109d184828501610998565b9150509291505056fea26469706673582212207405ccb8660e58cade1c0b0ae3d5827e8bf360394d5370c65b07cca1fd5100fd64736f6c63430008110033",
    "linkReferences": {},
    "deployedLinkReferences": {}
}